:020000040800F2
:10000000300800200101000829110008071000082D
:1000100025110008610E0008DF180008000000002C
:100020000000000000000000000000003113000884
:10003000650E000800000000011200081D140008F1
:100040001B0100081B0100081B0100081B01000820
:100050001B0100081B0100081B0100081B01000810
:100060001B0100081B0100081B0100081B01000800
:100070001B0100081B0100081B0100081B010008F0
:100080001B0100081B010008590800081B0100089B
:100090001B0100081B0100081B0100081B010008D0
:1000A0001B0100081B0100081B0100081B010008C0
:1000B000811400081B0100081B0100081B01000837
:1000C0001B0100081B0100081B0100081B010008A0
:1000D0001B010008A1150008551600081B010008A7
:1000E0001B0100081B0100081B010008DFF80CD0F1
:1000F00000F06EFB00480047A122000830080020F5
:100100000648804706480047FEE7FEE7FEE7FEE7B1
:10011000FEE7FEE7FEE7FEE7FEE7FEE72114000844
:10012000ED000008D2B201E000F8012B491EFBD21D
:1001300070470022F6E710B513460A4604461946F2
:10014000FFF7F0FF204610BD421E12F8013F002BC2
:10015000FBD111F8013B02F8013B002BF9D17047AC
:1001600030B505462A460B4612F8010B13F8014B31
:1001700008B1A042F8D01CB1002802D06D1CF1E7F4
:10018000284630BD421C10F8011B0029FBD1801A03
:10019000704730B480EA010202F0004530F00042BE
:1001A00021F0004013D090B1C30DD40DC2F316015D
:1001B000C0F31600E41A41F4000140F400027D345B
:1001C000914201D3641C00E04900002C02DA30BCEB
:1001D000002070474FF400000023914201D3891A98
:1001E000034340084FEA4101F7D151B1914202D196
:1001F0004FF0004105E002D24FF0010101E06FF045
:10020000010103EBC450284430BC00F01EB92DE9B5
:10021000FE4F81EA030404F0004421F00041009401
:100220004FF0000B23F0004350EA01045ED052EA85
:1002300003045BD0C3F30A54C1F30A552C44A4F25F
:10024000F3340194A0FB0254C1F3130141F4801173
:10025000C3F3130343F4801301FB024400FB034E7A
:10026000840A970A44EA815447EA8357A4FB076843
:1002700002958D0A05FB07854FEA932C04FB0C546D
:100280002705029D4FEA065847EA1637B5EB0805E1
:100290006EEB070C870E920E47EA811742EA831233
:1002A000A7FB0201B6EB0B0164EB00042B0D43EA44
:1002B0000C335E1844EB1C50DA465146E7FB020152
:1002C000C5F313044FEA0B3343EA14534FEA0432E5
:1002D000019C43EA0603A4F10C040294009CCDE9BE
:1002E00000B400F0F8F803B0BDE8F08F002001463C
:1002F000F9E796230022114600F0B0B800F0004262
:1003000030F000400AD0C10D01F56071C0F3160055
:1003100042EA0151C20840071143704700200146DC
:100320007047000030B5041E71F1000404DB4FF08B
:100330000044404264EB0101141E73F1000405DB2C
:100340001C464FF00043524263EB04038B4208BF4C
:10035000824230BD30B5041E71F1000404DB4FF061
:100360000044404264EB0101141E73F1000405DBFC
:100370001C464FF00043524263EB0403994208BF0E
:10038000904230BD01F0004330B421F0004150EA0A
:10039000010206D00A0DA2F56072C1F31301002A12
:1003A00002DC30BC00207047440F44EAC104C100A5
:1003B000E01830BC00EBC25000F047B830B50B4637
:1003C000014600202022012409E021FA02F59D4285
:1003D00005D303FA02F5491B04FA02F52844151E59
:1003E000A2F10102F1DC30BD2DE9F05F05460020ED
:1003F00092469B4688460646814640241BE0284696
:1004000041464746224600F004FA53465A46C01A6F
:10041000914110D311461846224600F0EBF92D1AEF
:1004200067EB01084F4622460120002100F0E2F967
:1004300017EB00094E41201EA4F10104DFDC484601
:1004400031462A464346BDE8F09F0029A8BF7047C1
:10045000401C490008BF20F00100704710B4B0FAFA
:1004600080FC00FA0CF050EA010404BF10BC704795
:1004700049B1CCF1200421FA04F411FA0CF118BFAF
:10048000012121430843A3EB0C01CB1D4FEA00617E
:100490004FEA102042BF002010BC704700EBC35051
:1004A00010440029A4BF10BC7047401C490008BF7D
:1004B00020F0010010BC704710B5141E73F1000449
:1004C00008DA401C41F1000192185B411A4301D146
:1004D00020F0010010BD2DE9F04D92469B4611B170
:1004E000B1FA81F202E0B0FA80F22032904600F0D8
:1004F00081F904460F4640EA0A0041EA0B015346DF
:100500005A46084313D0114653EA010019D0C8F1E6
:100510004002504600F07DF905460E4650465946C9
:10052000424600F067F9084305D0012004E0204668
:100530003946BDE8F08D0020054346EAE0762C43BD
:1005400037430A986305E40AA0EB08000022FD0A7D
:1005500044EA47540A3002D500200146E9E7010584
:1005600010196941DDE9084500196941BDE8F04D00
:10057000A2E72DE9FE4F804681EA0300C00F0C463A
:10058000009021F0004123F00045B8EB0200A941A2
:1005900005D24046214690461C460B46024623F0B3
:1005A0000040104347D0270DC7F30A00C3F30A5198
:1005B0000290401A019040286BDAC3F3130040F414
:1005C000801B0098924620B10023D2EB030A63EB14
:1005D0000B0B01985946C0F14002504600F00AF951
:1005E00006460D4650465946019A00F022F910EB96
:1005F00008006141002487EA115284EAE7731A4334
:1006000040D0009A62B3019A012A4FEA075215DCE2
:10061000001B61EB02014FF0004202EA0752CDE9F4
:100620000042001C41F5801132462B46FFF753FF74
:1006300003B0BDE8F08F40462146F9E7001B61EBAF
:100640000201001C41F5801300185B412018A2F53F
:10065000001747EB030140EAD570B6196D4111E070
:100660006D084FEA360645EAC0754FEA0752001B8F
:1006700061EB0201001C41F5801149084FEA30008E
:100680000019514132462B4603B0BDE8F04FFFF749
:1006900013BF0098012240000023D0EB020263EB5D
:1006A000E073009821464FEAE074B8EB000061EB7C
:1006B0000401E9E783F000435BE781F0004158E77C
:1006C0002DE9F04D81EA030404F0004B21F00045D0
:1006D00014464FF0000A23F0004150EA050220D0F2
:1006E00054EA01021DD0C5F30A570246C5F31303AD
:1006F000C1F31300C1F30A5640F4801543F480138C
:10070000A7EB0608101BD64608F2FD3873EB050070
:1007100002D308F1010801E092185B41B8F1000F23
:1007200003DA00200146BDE8F08D00204FF480116F
:10073000064684460EE0171B73EB050705D3121B14
:1007400063EB050306434CEA010C49084FEA30000D
:1007500092185B4150EA0107EDD152EA030012D032
:1007600082EA040083EA0501084305D0101BAB416F
:1007700006D20122002306E000224FF0004302E0EF
:100780006FF0010253101AEB06004CEB085110EB0E
:100790000A0041EB0B01BDE8F04DFFF78DBEC1F340
:1007A0000A52C1F3130140F2FF3341F480119A421F
:1007B00002DA00200146704740F233439A42A2F227
:1007C000334202DC524200F024B800F013B80000BB
:1007D000064C074D06E0E06840F0010394E807008E
:1007E00098471034AC42F6D3FFF784FC7C24000811
:1007F0009C240008202A04DB203A00FA02F10020A1
:1008000070479140C2F1200320FA03F3194390404E
:100810007047202A04DB203A21FA02F000217047B9
:1008200021FA02F3D040C2F1200291400843194658
:100830007047202A06DBCB17203A41FA02F043EA40
:10084000E07306E041FA02F3D040C2F12002914089
:10085000084319467047000010B54FF40871084866
:1008600000F030F8012804D1054800F027F80549C8
:1008700008804FF40871024800F006F810BD00002F
:10088000002401402400002000220A12D343036008
:10089000704721B1826842F00102826003E0826801
:1008A00022F0010282607047014600208A6802F04F
:1008B00004020AB1012000E0002070470146C86C24
:1008C00080B2704770B502460020002300240B124E
:1008D0005568CEB205EA060415681D4015B10CB185
:1008E000012000E0002070BD014600208A6802F06F
:1008F00008020AB1012000E00020704710B5002373
:10090000CBB21AB144681C43446002E044689C4383
:10091000446010BD30B502460020002350680F4CE3
:1009200020400D790C6844EA05242043506090680B
:100930000B4C2040D1E902542C434D7944EA450444
:1009400020439060D06A20F470000C7C641EE4B2F6
:10095000234340EA0350D06230BD0000FFFEF0FFA9
:10096000FDF7F1FF08B54FF4C06000F03FFC122026
:100970008DF8000001208DF801008DF802008DF83F
:100980000300684600F0FAFB08BDF0B504460D46CA
:1009900000200021092D11DDE068A5F10A0606EB13
:1009A0004607072606FA07F18843A5F10A0606EB73
:1009B000460603FA06F10843E0600CE0206905EB07
:1009C0004507072606FA07F1884305EB450603FAB3
:1009D00006F108432061072A0FDA606B561E06EB0A
:1009E00086071F2606FA07F18843561E06EB860681
:1009F00005FA06F10843606322E00D2A0FDA206B46
:100A0000D61F06EB86071F2606FA07F18843D61F76
:100A100006EB860605FA06F10843206310E0E06A5B
:100A2000A2F10D0606EB86071F2606FA07F188439A
:100A3000A2F10D0606EB860605FA06F10843E06210
:100A4000F0BD816841F008018160704721B1826882
:100A500042F4A002826003E0826822F4A002826075
:100A60007047816841F004018160704708B5012139
:100A7000102000F0E3FB0120ADF8000000208DF80D
:100A800003006946014800F02FFA08BD0008014044
:100A900010B5FFF7EBFF00F003F8FFF763FF10BDA1
:100AA00000B585B00121480200F0C8FB002000908D
:100AB0008DF8040001208DF805004FF460200290AD
:100AC0000020039001208DF8100069461748FFF7B9
:100AD00021FF4FF4404000F095FB05230122002147
:100AE0001248FFF752FF01224FF408710F48FFF739
:100AF00005FF01210D48FFF7CCFE0C48FFF7A1FFD1
:100B000000BF0A48FFF7F0FE0028FAD10748FFF7B8
:100B1000A8FF00BF0548FFF7C7FE0028FAD1012152
:100B20000248FFF793FF05B000BD0000002401401C
:100B300010B588B0044600F06BF822460BA1684659
:100B400000F02AFF69460D4800F0DAFE00F0EEFEE4
:100B500030B10BA000F010FF4FF0FF3008B010BD17
:100B60000CA000F009FF0020F8E7000041542B43DF
:100B7000574D4F44453D2531640D0A000044004067
:100B8000415420C9E8D6C3C4A3CABDCAA7B0DC0A71
:100B900000000000415420C9E8D6C3C4A3CABDB3B5
:100BA000C9B9A60A0000000030B589B0044600F0BB
:100BB0002FF82046FFF7E6FA05462A460AA101A8C3
:100BC00000F0EAFE01A90C4800F09AFE00F0AEFE2B
:100BD00018B10AA000F0D0FE03E02146064800F05C
:100BE0008FFE09B030BD000041542B43495053459E
:100BF0004E443D25640D0A0000440040415420B796
:100C0000A2CBCD544350CAFDBEDDCAA7B0DC0A005A
:100C100010B54FF480610348FFF78BFA00200249BA
:100C2000086010BD2C000020200000202DE9F041BC
:100C300004460DA12046FFF793FA05460BA1204676
:100C4000FFF78EFA06460BA12046FFF789FA074602
:100C50001DB101200949086004E006B917B102205E
:100C600006490860BDE8F0814F4B00004552524FE5
:100C7000520000004641494C0000000020000020C6
:100C80002DE9F04124A12648FFF76AFA044625A180
:100C90002348FFF765FA054624A12148FFF760FACB
:100CA000064624A11E48FFF75BFA074623A11C480D
:100CB000FFF756FA8046002C2CD0E11D21A000F051
:100CC0005BFE45B1012000F005FA012022490860D1
:100CD00014A0FFF769FF46B1012000F0D3F900200E
:100CE0001D49086011A0FFF75FFF2FB1022000F03F
:100CF000F1F910A0FFF758FFB8F1000F05D002205E
:100D000000F0C0F90DA0FFF74FFF4FF480610448D9
:100D1000FFF70FFABDE8F0812B4950442C0000008A
:100D20002C0000204C4544313A3100004C45443100
:100D30003A3000004C4544323A3100004C454432D0
:100D40003A300000BDD3CAD5B5BD544350CAFDBE2C
:100D5000DDA3BA25730A00001800002030B591B059
:100D600004460D46FFF754FF2B4622460BA101A86F
:100D700000F012FE01A9104800F0C2FD00F0D6FDFF
:100D800030B10EA000F0F8FD4FF0FF3011B030BDD3
:100D90000EA000F0F1FD0020F8E7000041542B43C5
:100DA000495053544152543D22544350222C222541
:100DB00073222C25640D0A0000440040415420C1D8
:100DC000ACBDD3544350CAA7B0DC0A00415420C183
:100DD000ACBDD3544350B3C9B9A60A0030B5A1B0D5
:100DE00004460D46FFF714FF2B4622460BA101A82F
:100DF00000F0D2FD01A90F4800F082FD00F096FD41
:100E000030B10DA000F0B8FD4FF0FF3021B030BD83
:100E10000EA000F0B1FD0020F8E7000041542B4384
:100E2000574A41503D222573222C222573220D0A58
:100E30000000000000440040415420C1ACBDD35725
:100E4000494649CAA7B0DC0A00000000415420C14D
:100E5000ACBDD357494649B3C9B9A60A0000000042
:100E600000BFFEE7704710B500F029F800F001F868
:100E700010BD0EB50121084600F0D0F940F2E73070
:100E8000ADF804004720ADF800000020ADF80600E2
:100E9000ADF802008DF8080069464FF0804000F080
:100EA0002DFB0121880700F0FDFA01221146900771
:100EB00000F01BFB0121880700F0FAFA0EBD08B50F
:100EC0004FF4E06000F092F91C208DF80000002043
:100ED0008DF8010003208DF8020001208DF8030039
:100EE000684600F04BF908BD2DE9F04102460025A7
:100EF0000026002000230024002791F803C00CF0F6
:100F00000F0591F803C00CF0100CBCF1000F03D0DA
:100F100091F802C04CEA050591F800C0BCF1000F41
:100F200031D0146800202BE04FF0010C0CFA00F3D4
:100F3000B1F800C00CEA03069E4220D183004FF0B6
:100F40000F0C0CFA03F7BC4305FA03FC4CEA04044B
:100F500091F803C0BCF1280F06D14FF0010C0CFA38
:100F600000FCC2F814C00AE091F803C0BCF1480FBD
:100F700005D14FF0010C0CFA00FCC2F810C0401C67
:100F80000828D1D31460B1F800C0BCF1FF0F34DDE4
:100F9000546800202EE000F1080C4FF0010808FA18
:100FA0000CF3B1F800C00CEA03069E4221D1830085
:100FB0004FF00F0C0CFA03F7BC4305FA03FC4CEAA4
:100FC000040491F803C0BCF1280F05D100F1080C0E
:100FD00008FA0CF8C2F8148091F803C0BCF1480F6D
:100FE00007D100F1080C4FF0010808FA0CF8C2F81C
:100FF0001080401C0828CED35460BDE8F0814161C8
:1010000070470161704700BFFEE7000008B501218D
:10101000082000F013F903208DF8020010208DF84D
:10102000030003208DF802004FF40040ADF80000EB
:1010300069461348FFF758FF4FF48040ADF80000B1
:1010400069460F48FFF750FF4FF40060ADF800000D
:1010500069460B48FFF748FF0220ADF800006946DB
:101060000748FFF741FF012000F00CF8022000F0D4
:1010700009F8042000F006F8082000F003F808BD85
:10108000000C014010B50446012C06D0022C0AD0F9
:10109000042C0ED0082C17D111E04FF400410C485D
:1010A000FFF7ADFF11E04FF480410948FFF7A7FFBC
:1010B0000BE04FF400610648FFF7A1FF05E00221B5
:1010C0000348FFF79CFF00E000BF00BF10BD000019
:1010D000000C014010B50446012C06D0022C0AD0A9
:1010E000042C0ED0082C17D111E04FF400410C480D
:1010F000FFF787FF11E04FF480410948FFF781FFB8
:101100000BE04FF400610648FFF77BFF05E002218A
:101110000348FFF776FF00E000BF00BF10BD0000EE
:10112000000C014000BFFEE7704708B54FF4A06017
:1011300000F05CF825208DF8000001208DF80100FA
:101140008DF802008DF80300684600F017F808BD1E
:1011500008B54FF4A06000F049F826208DF8000093
:1011600001208DF8010002208DF8020001208DF889
:101170000300684600F002F808BD000070B50021C9
:1011800000230F22C47804B3154C246804F4E064EF
:10119000C4F5E064210AC1F10403CA40447804FAAA
:1011A00003F184781440214309010E4C0678A155BF
:1011B000047804F01F050124AC4005786D11AD00E2
:1011C00005F1E025C5F8004109E0047804F01F05A9
:1011D0000124AC40044D0678761145F8264070BDD8
:1011E0000CED00E000E400E080E100E00249014392
:1011F000024A1160704700000000FA050CED00E0A3
:101200007047000001460020034A506820F4404027
:1012100008435060704700000010024029B1064AA0
:10122000D2690243044BDA6104E0034AD269824383
:10123000014BDA61704700000010024029B1064AF4
:1012400092690243044B9A6104E0034A9269824323
:10125000014B9A61704700000010024030B5002138
:101260000022002400232D4D6D6805F00C0121B1F2
:10127000042905D0082923D105E0294D056022E085
:10128000274D05601FE0254D6D6805F47012234D54
:101290006D6805F48034022505EB92421CB9214D9E
:1012A000554305600BE01D4D6D6805F400351DB11B
:1012B0001C4D5543056002E0194D5543056002E0A1
:1012C000174D056000BF00BF144D6D6805F0F001BB
:1012D0000909154D6B5C0568DD4045600F4D6D6873
:1012E00005F4E061090A104D6B5C4568DD408560DE
:1012F0000A4D6D6805F46051C90A0B4D6B5C456879
:10130000DD40C560054D6D6805F44041890B074D12
:101310006B5CC568B5FBF3F5056130BD001002409C
:1013200000127A0000093D0000000020100000209B
:10133000704710B500F002F810BD00000CB5002099
:10134000019000903348006840F4803031490860D3
:1013500000BF3048006800F4003000900198401C45
:101360000190009818B90198B0F5A06FF1D1294803
:10137000006800F4003010B10120009001E000206E
:1013800000900098012843D12348006840F01000E5
:10139000214908600846006820F0030008600846FC
:1013A000006840F0020008601A4840681949486027
:1013B0000846406848600846406840F480604860DD
:1013C0000846406820F47C1048600846406840F4B5
:1013D000E81048600846006840F08070086000BF70
:1013E0000C48006800F000700028F9D009484068F7
:1013F00020F00300074948600846406840F00200BA
:10140000486000BF0348406800F00C000828F9D18C
:101410000CBD000000100240002002407047000098
:1014200010B51348006840F00100114908600846F3
:101430004068104908400E494860084600680E4957
:1014400008400B4908600846006820F480200860C6
:101450000846406820F4FE0048604FF41F00886092
:10146000FFF767FF4FF000600449086010BD0000FF
:10147000001002400000FFF8FFFFF6FE08ED00E05C
:1014800010B50121880700F01FF840B1044800683A
:10149000401C034908600121880700F006F810BDD0
:1014A0001C000020CA4302827047CA430282704770
:1014B00021B1028842F00102028004E002884FF666
:1014C000FE731A400280704730B5024600200023A8
:1014D0000024158A05EA0103958905EA010413B180
:1014E0000CB1012000E0002030BD1AB183890B430C
:1014F000838102E083898B438381704700220288C5
:101500001D4B98420ED01D4B98420BD0B0F1804F2E
:1015100008D01B4B984205D01A4B984202D01A4B68
:10152000984204D14FF68F731A404B881A43174BD9
:10153000984207D0164B984204D04FF6FF431A400A
:10154000CB881A4302808B8883850B8803850A4BDE
:1015500098420BD0094B984208D00E4B984205D0C8
:101560000D4B984202D00D4B984201D10B7A038665
:101570000123838270470000002C014000340140A9
:101580000004004000080040000C00400010004033
:101590000014004000400140004401400048014068
:1015A00010B540F22551064800F0D5F838B104488E
:1015B00000F08CF9C4B22146024800F08CF910BD4D
:1015C000003801400044004000B585B001210420EE
:1015D000FFF734FE01214804FFF720FE0420ADF898
:1015E000100018208DF8130003208DF8120004A9B4
:1015F0001648FFF779FC0820ADF8100004208DF89C
:10160000130004A91148FFF76FFC4FF4E13000907C
:101610000020ADF80400ADF80600ADF80800ADF804
:101620000C000C20ADF80A006946094800F0E2F809
:10163000FFF78EFD012240F22551054800F0B5F874
:101640000121034800F026F805B000BD0008014064
:101650000044004038B540F225510B4800F07BF8BB
:1016600080B1094800F032F9C4B28DF80040002082
:101670008DF8010069460548FEF766FD21460448DD
:1016800000F029F938BD0000004400402C00002083
:101690000038014021B1828942F40052828104E085
:1016A00082894DF6FF731A408281704700B585B07C
:1016B00001210420FFF7C2FD01218803FFF7BEFDD1
:1016C0004FF40070ADF8100018208DF813000320BF
:1016D0008DF8120004A91748FFF706FC4FF480604C
:1016E000ADF8100004208DF8130004A91148FFF78D
:1016F000FBFB4FF4E13000900020ADF80400ADF8A2
:101700000600ADF80800ADF80C000C20ADF80A009A
:101710006946094800F06EF8FFF707FD012240F224
:101720002551054800F041F801210348FFF7B2FFB9
:1017300005B000BD0008014000380140024600200D
:10174000B1F5007F00D100BF13880B400BB1012021
:1017500000E00020704770B50246002400230025F9
:10176000002040F66A16B14200D100BFC1F3421515
:1017700001F01F03012606FA03F3012D02D1968919
:10178000334006E0022D02D1168A334001E0968AEA
:1017900033400C12012606FA04F41688344013B1C3
:1017A0000CB1012000E0002070BDF0B5034600241C
:1017B00000260025002040F66A17B94200D100BF7C
:1017C0001846C1F3421401F01F06012707FA06F577
:1017D000012C01D10C3004E0022C01D1103000E0CA
:1017E00014301AB107682F43076002E00768AF435F
:1017F0000760F0BD2DE9F04786B005460E4600248F
:10180000A24600BFA1460027B08900B100BF2F4605
:101810002C8A4CF6FF700440F08804432C82AC897B
:101820004EF6F3100440B0883189084371890843AB
:101830000443AC81AC8A4FF6FF400440B0890443B6
:10184000AC8201A8FFF70AFD1F48874202D1DDF8EC
:1018500010A001E0DDF80CA0A88900F4004040B120
:101860000AEBCA0000EB0A1031684900B0FBF1F83E
:1018700007E00AEBCA0000EB0A1031688900B0FBF0
:10188000F1F86420B8FBF0F004012009642101FBA9
:101890001089A88900F4004040B1322000EBC90053
:1018A000B0FBF1F000F00700044308E0322000EB49
:1018B00009106421B0FBF1F000F00F0004432C810B
:1018C00006B0BDE8F0870000003801400146888876
:1018D000C0F308007047C1F308028280704700BF60
:1018E000FEE770B504460D4629462046FFF7F3FF94
:1018F00000BF80212046FFF721FF0028F9D070BDEE
:1019000070B506460C46002500BF615D3046FFF706
:10191000E8FF6D1C605D0028F7D100BF4021304614
:10192000FFF70CFF0028F9D070BD000010B50024AF
:1019300017E00E480068B0F57A7F12D1641C0020D1
:101940000A4908600A48FFF771F90A480068012847
:1019500001D1002010BD07480068022801D1C01E37
:10196000F8E70A2CE5DD4FF0FF30F3E71C0000201C
:101970002C000020200000200FB4054B10B503A957
:10198000044A029800F0DEF810BC5DF814FB000079
:101990007D220008280000200FB4084B10B504A9D0
:1019A00002AA039800F0CEF8044602A9002000F035
:1019B00060FC204610BC5DF814FB00007322000898
:1019C00002E008C8121F08C1002AFAD17047704708
:1019D000002001E001C1121F002AFBD17047000066
:1019E0002DE9FF5FDDE90220010DDDF838B002438B
:1019F00018D044F61050A1F2FF3141430D140F9856
:101A0000012820D0A5EB0B00401C5FEA000A4FF034
:101A10000004474EDFF81C91A046504616D5CAF187
:101A2000000728E00F98012443A2012808D00021D4
:101A300000980F9BC0E90021C0E90243BDE8FF9F69
:101A40006FEA0B01F4E7CBF10000DEE7074612E096
:101A5000F80707D02246334640464946FEF7D7FBF3
:101A6000804689462246334610461946FEF7CFFB8C
:101A700004460E467F10002FEAD1DDE90201BAF1DB
:101A8000000F42464B4602DAFEF7C1FB01E0FEF7CB
:101A900017FE04460E460022284BFEF75BFC03D8D7
:101AA0004FF0FF30014607E00022254B204631462B
:101AB000FEF75FFDFEF773FE102409E0002C0ADB41
:101AC0000A220023FEF790FC019B30321A55641E57
:101AD00050EA0102F2D1641C019AC4F111031444CA
:101AE0000F9A012A03D0012208430DD10AE00843CE
:101AF00004D000204FF0110B0F9080E7A3EB0B05F3
:101B00006D1E0DE05B4504DD4FF0000205F101059F
:101B100004E003DA4FF00002A5F10105002AECD041
:101B200000980F99C0E90231C0E9004586E700003E
:101B3000000024400000F03F300000000000F043AF
:101B40000000E03F2DE9FF4F95B09B4689460646D1
:101B500000250FE2252877D100242746F84A0121E5
:101B6000059400E0044316F8013F203B01FA03F01E
:101B70001042F7D130782A2811D06FF02F03307837
:101B8000A0F13002092A16D8059A44F0020402EBAB
:101B9000820203EB42021044761C0590EFE759F8ED
:101BA000042B0592002A03DA504244F400540590B5
:101BB00044F00204761C30782E2816D116F8010F56
:101BC00044F004042A280DD06FF02F023078A0F1E1
:101BD0003003092B09D807EB870302EB4303C7182F
:101BE000761CF3E759F8047B761C30786C280FD00C
:101BF00006DC4C2817D068280DD06A2814D104E0E0
:101C0000742810D07A280FD10DE044F400140AE0B3
:101C100044F4801401E044F440147278824202D10A
:101C200004F58014761C761C307866280BD013DC03
:101C3000582877D009DC002875D04528F6D04628EA
:101C4000F4D047281AD19DE118E0632835D06428E4
:101C500079D0652812D195E1702873D008DC672807
:101C6000F1D069286FD06E280DD06F2806D1B5E06D
:101C700073282CD0752875D0782874D05A461799B7
:101C800090476D1C75E1C4F30250022809D0032867
:101C90000DD0D9F8001004280DD00D6009F1040909
:101CA00067E1D9F80010EA17C1E90052F6E7D9F860
:101CB00000100D80F2E70D70F0E719F8041B8DF8A5
:101CC000001000208DF80100EA46012003E059F8D9
:101CD00004AB4FF0FF3061074FF0000102D40DE07C
:101CE00008F101018846B9420FDA8045F8DB1AF89D
:101CF00008100029F4D108E008F10101884681426A
:101D0000FADB1AF808100029F6D105985B46A0EB1B
:101D1000080721463846179A00F094FA284400EB49
:101D2000080507E04DE029E10DE01AF8010B5A46DD
:101D300017999047B8F10108F7D25B46214638461B
:101D4000179A13E142E00A220092C4F302524FF0C4
:101D5000000A022A08D059F804CB032A4FEAEC7192
:101D60000AD00DE029E02AE009F1070121F007027D
:101D7000F2E802C1914609E00FFA8CFC4FEAEC71DF
:101D8000042A03D14FFA8CFC4FEAEC71002907DAE0
:101D90000A460021DCF1000C61EB02012D2202E079
:101DA000220504D52B228DF80420012203E0E2074E
:101DB00001D02022F7E7904659E00A2102E01022E4
:101DC0000DE010214FF0000A00910BE010224FF0BF
:101DD000000A44F004040827009203E008224FF0B0
:101DE000000A0092C4F30252022A05D059F804CB2B
:101DF0000021032A08D009E009F1070121F00702B8
:101E0000F2E802C1914605E01FFA8CFC042A01D1D8
:101E10000CF0FF0C4FF00008220728D5702806D0E0
:101E2000009B83F0100353EA0A0305D00EE0402222
:101E30008DF80420012208E05CEA010206D030227D
:101E40008DF804208DF8050002229046009B83F057
:101E5000080353EA0A030AD15CEA010201D16207CE
:101E600005D530228DF804204FF001087F1E582838
:101E700004D034A003900EA802900DE036A0F9E73C
:101E800053466046009AFEF7AFFA84460398825C98
:101E90000298401E029002705CEA0100F0D10298A4
:101EA00006A9081A00F1200A600702D524F480343C
:101EB00000E00127574502DDA7EB0A0000E0002003
:101EC00000EB0A01009005984144401A0590E00398
:101ED00006D45B462146179A059800F0B3F90544ED
:101EE000002706E001A85A46C05D179990476D1C6F
:101EF0007F1C4745F6DBE0030CD55B462146179A6D
:101F0000059800F09FF9054404E030205A461799DF
:101F100090476D1C0099481E00900029F5DC08E0F0
:101F2000029802995A460078491C029117999047E5
:101F30006D1CBAF10001AAF1010AF1DC65E10000B3
:101F4000092801003031323334353637383961628F
:101F50006364656600000000303132333435363753
:101F600038394142434445460000000000F058F92A
:101F70000544761C307800287FF4ECAD19B0284673
:101F8000BDE8F08F620700D4062709F1070222F0AE
:101F9000070CFCE80223E14603F000485FEA080C66
:101FA00002D00FF2702C0DE05FEA045C02D50FF254
:101FB000682C07E05FEAC47C02D00FF2602C01E0DD
:101FC000AFF2700C4FF0FF3823F00043CDF850C053
:101FD00065280CD006DC452809D046281DD04728A6
:101FE0003DD13DE0662818D067287ED138E0002139
:101FF000112F01DB112000E0781CCDE9000106A9BA
:102000000EA8FFF7EDFCDDE90F010E9A0391002108
:10201000009207F1010A04914DE04FF00040009753
:10202000CDE9011006A90EA8FFF7DAFCDDE90F02E1
:1020300003920E9B11990022DDF80CA000930492EC
:1020400011B9791C00EB010AB7EB0A0004D4C0F106
:10205000FF3007F1010A0490AAEB0700019044E069
:10206000012F00DA01270021112F01DD112000E0EE
:102070003846CDE9000106A90EA8FFF7B1FCDDE95D
:102080000F010E9A0391002104910092BA46210794
:102090000CD40399514500DA8A46BAF1010F05DDE7
:1020A000009AAAF10101515C302908D0B84202DA45
:1020B00010F1040F06DA0121CDE9011015E0AAF1B3
:1020C0000101E9E7002805DC049901440491AAEB29
:1020D000000102E0411C514500DD8A460499401A86
:1020E000401C01904FF000400290200704D401985A
:1020F000504501DBCDF8048000208DF84F00029898
:102100000DF14F07B0F1004F25D02B200E90029813
:102110004FF0020800280CDA404202902D200E9069
:1021200007E00A210298FEF749F93031029007F8DA
:10213000011DB8F10001A8F10108F2DC02980028A5
:10214000EFD1791E0E980870307800F0200040F032
:10215000450007F8020D12A8C01B00F107081498EB
:10216000007800B1012000EB0A01019801EBE07159
:1021700005984144401A401E0590E00306D45B4692
:102180002146179A059800F05DF8054414980078E8
:1021900018B15A46179990476D1CE00324D55B4649
:1021A0002146179A059800F04DF805441CE0049864
:1021B000002807DBDDE90301884203DD0098405C6D
:1021C000179901E0179930205A469047049805F175
:1021D0000105401C04900198401E019004D12E205E
:1021E0005A46179990476D1CBAF10001AAF1010AED
:1021F000DDDC05E017F8010B5A46179990476D1C76
:10220000B8F10001A8F10108F4DC5B462146179AF9
:102210000598ABE62D0000002B0000002000000018
:102220002DE9F041044600251E461746880404D4D3
:1022300005E039462020B0476D1C641EF9D52846BC
:10224000BDE8F0812DE9F041044600251E46904688
:10225000C80301D5302700E02027880404D505E015
:1022600041463846B0476D1C641EF9D52846BDE886
:10227000F0810A68531C0B601070704770B50446FB
:102280000D46E1B20548FFF726FB00BF8021034859
:10229000FFF754FA0028F9D0204670BD00380140FD
:1022A00086B0FEF7B3FEFEF7F3FB0120FEF7EAFE71
:1022B0000020494908600220FEF7E4FE0420FEF7F2
:1022C000E1FE0820FEF7DEFEFFF7F0F9FFF77CF9EC
:1022D000FEF7C9FD0120FEF72BFC40A143A0FEF74D
:1022E0007DFD40F6781144A0FEF738FD46A0FEF7CC
:1022F0005BFC6FE046480068B0F57A7F6AD1002049
:1023000043490860FEF7BCFC42480068FDF7F6FF51
:10231000044622460B4640A101A8FFF73DFB414879
:102320000088FDF7E6FF81464FF08B41FDF731FF56
:102330000446FDF7E3FF07464FF066323A4BFDF7E0
:1023400066FF0546FEF71EF8324908600846006839
:10235000FDF7D4FF04460022344BFDF7E3FF16D20D
:102360001D480068012812D12A480068FDF7C6FF01
:10237000044622460B462EA0FFF7FEFA0120FEF788
:1023800081FE00201449086030A0FEF70DFC2148B2
:102390000068FDF7B3FF044600222E4BFDF7DAFF7D
:1023A00015D20D48006890B91A480068FDF7A6FFDD
:1023B000044622460B4628A0FFF7DEFA0120FEF76E
:1023C00089FE0120044908602AA0FEF7EDFB01A860
:1023D000FEF7EAFB8EE700001800002068756179BF
:1023E00075616E2D696F74363636000068756179D7
:1023F00075616E2D696F74003139322E3136382E89
:10240000312E31323100000068656C6C6F7E000047
:102410001C00002014000020414443313A252E3294
:10242000660000002400002066660A400000F03FBD
:1024300020B5B1C7B041444331A3BA252E32662C32
:10244000B9D8B1D54C4544310D0A00004C45443152
:102450003A3000000000084020B5B1C7B041444305
:1024600031A3BA252E32662CB4F2BFAA4C454431B2
:102470000D0A00004C4544313A3100009C2400080C
:10248000000000202C000000C0190008C82400082B
:102490002C00002004080000D019000800000000F3
:1024A00001020304010203040607080902040608E6
:1024B000000000000000000000000000000000001C
:0824C000000000000000000014
:04000005080000ED02
:00000001FF
