:020000040800F2
:10000000200400200101000811040008EF0200088C
:100010000D04000849010008970B000800000000CB
:1000200000000000000000000000000001060008C1
:100030004D01000800000000E9040008ED0600087A
:100040001B0100081B0100081B0100081B01000820
:100050001B0100081B0100081B0100081B01000810
:100060001B0100081B0100081B0100081B01000800
:100070001B0100081B0100081B0100081B010008F0
:100080001B0100081B0100081B0100081B010008E0
:100090001B0100081B0100081B0100081B010008D0
:1000A0001B0100081B0100081B0100081B010008C0
:1000B000510700081B0100081B0100081B01000874
:1000C0001B0100081B0100081B0100081B010008A0
:1000D0001B01000871080008250900081B01000821
:1000E0001B0100081B0100081B010008DFF80CD0F1
:1000F00000F018F800480047590C000820040020C0
:100100000648804706480047FEE7FEE7FEE7FEE7B1
:10011000FEE7FEE7FEE7FEE7FEE7FEE7F106000882
:10012000ED000008064C074D06E0E06840F00103D2
:1001300094E8070098471034AC42F6D3FFF7DAFF93
:10014000F40C0008140D000800BFFEE7704710B55E
:1001500000F029F800F001F810BD0EB501210846A5
:1001600000F0C4F940F2E730ADF804004720ADF8E4
:1001700000000020ADF80600ADF802008DF8080080
:1001800069464FF0804000F021FB0121880700F014
:10019000F1FA01221146900700F00FFB01218807B8
:1001A00000F0EEFA0EBD08B54FF4E06000F092F9F1
:1001B0001C208DF8000000208DF8010003208DF830
:1001C000020001208DF80300684600F04BF908BDDD
:1001D0002DE9F041024600250026002000230024DE
:1001E000002791F803C00CF00F0591F803C00CF044
:1001F000100CBCF1000F03D091F802C04CEA0505C9
:1002000091F800C0BCF1000F31D0146800202BE041
:100210004FF0010C0CFA00F3B1F800C00CEA030631
:100220009E4220D183004FF00F0C0CFA03F7BC4321
:1002300005FA03FC4CEA040491F803C0BCF1280F52
:1002400006D14FF0010C0CFA00FCC2F814C00AE011
:1002500091F803C0BCF1480F05D14FF0010C0CFA26
:1002600000FCC2F810C0401C0828D1D31460B1F8BB
:1002700000C0BCF1FF0F34DD546800202EE000F117
:10028000080C4FF0010808FA0CF3B1F800C00CEAB2
:1002900003069E4221D183004FF00F0C0CFA03F7A6
:1002A000BC4305FA03FC4CEA040491F803C0BCF11A
:1002B000280F05D100F1080C08FA0CF8C2F81480D8
:1002C00091F803C0BCF1480F07D100F1080C4FF0C2
:1002D000010808FA0CF8C2F81080401C0828CED398
:1002E0005460BDE8F081416170470161704700BF13
:1002F000FEE7000008B50121082000F007F90320FF
:100300008DF8020010208DF8030003208DF8020004
:100310004FF40040ADF8000069461348FFF758FF5E
:100320004FF48040ADF8000069460F48FFF750FFDA
:100330004FF40060ADF8000069460B48FFF748FF36
:100340000220ADF8000069460748FFF741FF012091
:1003500000F00CF8022000F009F8042000F006F884
:10036000082000F003F808BD000C014010B5044659
:10037000012C06D0022C0AD0042C0ED0082C17D148
:1003800011E04FF400410C48FFF7ADFF11E04FF4CE
:1003900080410948FFF7A7FF0BE04FF400610648D2
:1003A000FFF7A1FF05E002210348FFF79CFF00E0F3
:1003B00000BF00BF10BD0000000C014010B5044696
:1003C000012C06D0022C0AD0042C0ED0082C17D1F8
:1003D00011E04FF400410C48FFF787FF11E04FF4A4
:1003E00080410948FFF781FF0BE04FF400610648A8
:1003F000FFF77BFF05E002210348FFF776FF00E0EF
:1004000000BF00BF10BD0000000C014000BFFEE7B0
:10041000704708B54FF4A06000F05CF825208DF817
:10042000000001208DF801008DF802008DF8030016
:10043000684600F017F808BD08B54FF4A06000F05A
:1004400049F826208DF8000001208DF801000220D7
:100450008DF8020001208DF80300684600F002F8D4
:1004600008BD000070B5002100230F22C47804B33A
:10047000154C246804F4E064C4F5E064210AC1F179
:100480000403CA40447804FA03F1847814402143F9
:1004900009010E4C0678A155047804F01F050124CB
:1004A000AC4005786D11AD0005F1E025C5F80041BF
:1004B00009E0047804F01F050124AC40044D0678DF
:1004C000761145F8264070BD0CED00E000E400E038
:1004D00080E100E002490143024A116070470000D8
:1004E0000000FA050CED00E07047000029B1064A53
:1004F000D2690243044BDA6104E0034AD2698243C1
:10050000014BDA61704700000010024029B1064A31
:1005100092690243044B9A6104E0034A9269824360
:10052000014B9A61704700000010024030B5002175
:100530000022002400232D4D6D6805F00C0121B12F
:10054000042905D0082923D105E0294D056022E0C2
:10055000274D05601FE0254D6D6805F47012234D91
:100560006D6805F48034022505EB92421CB9214DDB
:10057000554305600BE01D4D6D6805F400351DB158
:100580001C4D5543056002E0194D5543056002E0DE
:10059000174D056000BF00BF144D6D6805F0F001F8
:1005A0000909154D6B5C0568DD4045600F4D6D68B0
:1005B00005F4E061090A104D6B5C4568DD4085601B
:1005C0000A4D6D6805F46051C90A0B4D6B5C4568B6
:1005D000DD40C560054D6D6805F44041890B074D50
:1005E0006B5CC568B5FBF3F5056130BD00100240DA
:1005F00000127A0000093D000000002010000020D9
:10060000704710B500F002F810BD00000CB50020D6
:10061000019000903348006840F480303149086010
:1006200000BF3048006800F4003000900198401C82
:100630000190009818B90198B0F5A06FF1D1294840
:10064000006800F4003010B10120009001E00020AB
:1006500000900098012843D12348006840F0100022
:10066000214908600846006820F003000860084639
:10067000006840F0020008601A4840681949486064
:100680000846406848600846406840F4806048601A
:100690000846406820F47C1048600846406840F4F2
:1006A000E81048600846006840F08070086000BFAD
:1006B0000C48006800F000700028F9D00948406834
:1006C00020F00300074948600846406840F00200F7
:1006D000486000BF0348406800F00C000828F9D1CA
:1006E0000CBD0000001002400020024070470000D6
:1006F00010B51348006840F0010011490860084631
:100700004068104908400E494860084600680E4994
:1007100008400B4908600846006820F48020086003
:100720000846406820F4FE0048604FF41F008860CF
:10073000FFF767FF4FF000600449086010BD00003C
:10074000001002400000FFF8FFFFF6FE08ED00E099
:1007500010B50121880700F01FF840B10448006877
:10076000401C034908600121880700F006F810BD0D
:1007700014000020CA4302827047CA4302827047B5
:1007800021B1028842F00102028004E002884FF6A3
:10079000FE731A400280704730B5024600200023E5
:1007A0000024158A05EA0103958905EA010413B1BD
:1007B0000CB1012000E0002030BD1AB183890B4349
:1007C000838102E083898B43838170470022028802
:1007D0001D4B98420ED01D4B98420BD0B0F1804F6C
:1007E00008D01B4B984205D01A4B984202D01A4BA6
:1007F000984204D14FF68F731A404B881A43174B17
:10080000984207D0164B984204D04FF6FF431A4047
:10081000CB881A4302808B8883850B8803850A4B1B
:1008200098420BD0094B984208D00E4B984205D005
:100830000D4B984202D00D4B984201D10B7A0386A2
:100840000123838270470000002C014000340140E6
:100850000004004000080040000C00400010004070
:1008600000140040004001400044014000480140A5
:1008700010B540F22551064800F0C9F838B10448D7
:1008800000F080F9C4B22146024800F080F910BDA2
:10089000003801400044004000B585B0012104202B
:1008A000FFF734FE01214804FFF720FE0420ADF8D5
:1008B000100018208DF8130003208DF8120004A9F1
:1008C0001648FFF785FC0820ADF8100004208DF8CD
:1008D000130004A91148FFF77BFC4FF4E1300090AE
:1008E0000020ADF80400ADF80600ADF80800ADF842
:1008F0000C000C20ADF80A006946094800F0D6F853
:10090000FFF79AFD012240F22551054800F0A9F8B1
:100910000121034800F01AF805B000BD00080140AD
:100920000044004010B540F22551064800F06FF831
:1009300038B1044800F026F9C4B22146024800F05C
:1009400026F910BD004400400038014021B18289E1
:1009500042F40052828104E082894DF6FF731A400E
:100960008281704700B585B001210420FFF7CEFDDC
:1009700001218803FFF7CAFD4FF40070ADF81000A5
:1009800018208DF8130003208DF8120004A91748D1
:10099000FFF71EFC4FF48060ADF8100004208DF8C6
:1009A000130004A91148FFF713FC4FF4E130009045
:1009B0000020ADF80400ADF80600ADF80800ADF871
:1009C0000C000C20ADF80A006946094800F06EF8EA
:1009D000FFF71FFD012240F22551054800F041F8C4
:1009E00001210348FFF7B2FF05B000BD0008014038
:1009F0000038014002460020B1F5007F00D100BF61
:100A000013880B400BB1012000E00020704770B547
:100A10000246002400230025002040F66A16B14259
:100A200000D100BFC1F3421501F01F03012606FAF1
:100A300003F3012D02D19689334006E0022D02D145
:100A4000168A334001E0968A33400C12012606FADA
:100A500004F41688344013B10CB1012000E00020EA
:100A600070BDF0B50346002400260025002040F6A6
:100A70006A17B94200D100BF1846C1F3421401F011
:100A80001F06012707FA06F5012C01D10C3004E0FE
:100A9000022C01D1103000E014301AB107682F4346
:100AA000076002E00768AF430760F0BD2DE9F0473B
:100AB00086B005460E460024A24600BFA146002788
:100AC000B08900B100BF2F462C8A4CF6FF7004405D
:100AD000F08804432C82AC894EF6F3100440B088B1
:100AE00031890843718908430443AC81AC8A4FF6CD
:100AF000FF400440B0890443AC8201A8FFF716FD13
:100B00001F48874202D1DDF810A001E0DDF80CA0FB
:100B1000A88900F4004040B10AEBCA0000EB0A10BB
:100B200031684900B0FBF1F807E00AEBCA0000EBBE
:100B30000A1031688900B0FBF1F86420B8FBF0F0CE
:100B400004012009642101FB1089A88900F40040F8
:100B500040B1322000EBC900B0FBF1F000F007001B
:100B6000044308E0322000EB09106421B0FBF1F0EF
:100B700000F00F0004432C8106B0BDE8F0870000B0
:100B80000038014001468888C0F308007047C1F36F
:100B900008028280704700BFFEE770B504460D462C
:100BA00029462046FFF7F3FF00BF80212046FFF7CC
:100BB00021FF0028F9D070BD70B506460C4600250F
:100BC00000BF615D3046FFF7E8FF6D1C605D0028E7
:100BD000F7D100BF40213046FFF70CFF0028F9D0C5
:100BE00070BD0000014A024900F013B8350C00083E
:100BF0001800002002E008C8121F08C1002AFAD11C
:100C000070477047002001E001C1121F002AFBD18C
:100C100070472DE9F04116460F460446002503E0D3
:100C20003946B047641C6D1C20780028F8D128464E
:100C3000BDE8F08170B504460D46E1B20548FFF706
:100C4000A6FF00BF80210348FFF7D4FE0028F9D09B
:100C5000204670BD00380140FFF74CFB0120FFF734
:100C6000ADFB0220FFF782FB0420FFF7A7FB082063
:100C7000FFF77CFBFFF776FEFFF70EFEFFF767FA44
:100C80000CA11048FFF798FF0FA11348FFF794FF3E
:100C90000EE012480068B0F57A7F09D100200F49B4
:100CA00008600FA10C48FFF787FF0FA0FFF79AFF1E
:100CB000EFE70000B4AEBFDAD2BBCDA8D0C5D1E912
:100CC000D6A40A0000380140B4AEBFDAB6FECDA803
:100CD000D0C5D1E9D6A40A00004400401400002089
:100CE000B4AEBFDAB6FE0A00BBB6D3ADB7A2B0E56C
:100CF0000A000000140D0008000000201C00000085
:100D0000F40B0008300D00081C0000200404000053
:100D1000040C0008000000000102030401020304A7
:100D20000607080902040608000000000000000091
:04000005080000ED02
:00000001FF
